{
  "_format": "hh-sol-artifact-1",
  "contractName": "NFTStakingVault",
  "sourceName": "contracts/NFTStakingVault.sol",
  "abi": [
    {
      "inputs": [
        {
          "internalType": "address",
          "name": "_nftAddress",
          "type": "address"
        },
        {
          "internalType": "address",
          "name": "_tokenAddress",
          "type": "address"
        }
      ],
      "stateMutability": "nonpayable",
      "type": "constructor"
    },
    {
      "inputs": [],
      "name": "NFTStakingVault__ItemAlreadyStaked",
      "type": "error"
    },
    {
      "inputs": [],
      "name": "NFTStakingVault__NotItemOwner",
      "type": "error"
    },
    {
      "anonymous": false,
      "inputs": [
        {
          "indexed": false,
          "internalType": "address",
          "name": "owner",
          "type": "address"
        },
        {
          "indexed": false,
          "internalType": "uint256",
          "name": "reward",
          "type": "uint256"
        }
      ],
      "name": "Claimed",
      "type": "event"
    },
    {
      "anonymous": false,
      "inputs": [
        {
          "indexed": false,
          "internalType": "uint256[]",
          "name": "tokenId",
          "type": "uint256[]"
        },
        {
          "indexed": false,
          "internalType": "address",
          "name": "owner",
          "type": "address"
        }
      ],
      "name": "ItemsStaked",
      "type": "event"
    },
    {
      "anonymous": false,
      "inputs": [
        {
          "indexed": false,
          "internalType": "uint256[]",
          "name": "tokenIds",
          "type": "uint256[]"
        },
        {
          "indexed": false,
          "internalType": "address",
          "name": "owner",
          "type": "address"
        }
      ],
      "name": "ItemsUnstaked",
      "type": "event"
    },
    {
      "inputs": [
        {
          "internalType": "address",
          "name": "user",
          "type": "address"
        }
      ],
      "name": "balanceOf",
      "outputs": [
        {
          "internalType": "uint256",
          "name": "nftStakedbalance",
          "type": "uint256"
        }
      ],
      "stateMutability": "view",
      "type": "function"
    },
    {
      "inputs": [
        {
          "internalType": "uint256[]",
          "name": "tokenIds",
          "type": "uint256[]"
        }
      ],
      "name": "claim",
      "outputs": [],
      "stateMutability": "nonpayable",
      "type": "function"
    },
    {
      "inputs": [
        {
          "internalType": "uint256",
          "name": "stakingPeriod",
          "type": "uint256"
        }
      ],
      "name": "getDailyReward",
      "outputs": [
        {
          "internalType": "uint256",
          "name": "dailyReward",
          "type": "uint256"
        }
      ],
      "stateMutability": "pure",
      "type": "function"
    },
    {
      "inputs": [
        {
          "internalType": "uint256",
          "name": "_tokenId",
          "type": "uint256"
        }
      ],
      "name": "getRewardEarnedPerNft",
      "outputs": [
        {
          "internalType": "uint256",
          "name": "rewardEarned",
          "type": "uint256"
        }
      ],
      "stateMutability": "view",
      "type": "function"
    },
    {
      "inputs": [
        {
          "internalType": "address",
          "name": "user",
          "type": "address"
        }
      ],
      "name": "getTotalRewardEarned",
      "outputs": [
        {
          "internalType": "uint256",
          "name": "rewardEarned",
          "type": "uint256"
        }
      ],
      "stateMutability": "view",
      "type": "function"
    },
    {
      "inputs": [
        {
          "internalType": "address",
          "name": "",
          "type": "address"
        },
        {
          "internalType": "address",
          "name": "",
          "type": "address"
        },
        {
          "internalType": "uint256",
          "name": "",
          "type": "uint256"
        },
        {
          "internalType": "bytes",
          "name": "",
          "type": "bytes"
        }
      ],
      "name": "onERC721Received",
      "outputs": [
        {
          "internalType": "bytes4",
          "name": "",
          "type": "bytes4"
        }
      ],
      "stateMutability": "pure",
      "type": "function"
    },
    {
      "inputs": [
        {
          "internalType": "uint256[]",
          "name": "tokenIds",
          "type": "uint256[]"
        }
      ],
      "name": "stake",
      "outputs": [],
      "stateMutability": "nonpayable",
      "type": "function"
    },
    {
      "inputs": [
        {
          "internalType": "address",
          "name": "user",
          "type": "address"
        }
      ],
      "name": "tokensOfOwner",
      "outputs": [
        {
          "internalType": "uint256[]",
          "name": "tokens",
          "type": "uint256[]"
        }
      ],
      "stateMutability": "view",
      "type": "function"
    },
    {
      "inputs": [],
      "name": "totalItemsStaked",
      "outputs": [
        {
          "internalType": "uint256",
          "name": "",
          "type": "uint256"
        }
      ],
      "stateMutability": "view",
      "type": "function"
    },
    {
      "inputs": [
        {
          "internalType": "uint256[]",
          "name": "tokenIds",
          "type": "uint256[]"
        }
      ],
      "name": "unstake",
      "outputs": [],
      "stateMutability": "nonpayable",
      "type": "function"
    }
  ],
  "bytecode": "0x60c06040523480156200001157600080fd5b5060405162001a1438038062001a148339818101604052810190620000379190620000c4565b8173ffffffffffffffffffffffffffffffffffffffff1660808173ffffffffffffffffffffffffffffffffffffffff1660601b815250508073ffffffffffffffffffffffffffffffffffffffff1660a08173ffffffffffffffffffffffffffffffffffffffff1660601b8152505050506200015e565b600081519050620000be8162000144565b92915050565b60008060408385031215620000de57620000dd6200013f565b5b6000620000ee85828601620000ad565b92505060206200010185828601620000ad565b9150509250929050565b600062000118826200011f565b9050919050565b600073ffffffffffffffffffffffffffffffffffffffff82169050919050565b600080fd5b6200014f816200010b565b81146200015b57600080fd5b50565b60805160601c60a05160601c61186e620001a66000396000610d6f01526000818161031b0152818161041101528181610827015281816109740152610f7e015261186e6000f3fe608060405234801561001057600080fd5b506004361061009e5760003560e01c80636ba4c138116100665780636ba4c1381461016d57806370a08231146101895780638462151c146101b9578063d88d2000146101e9578063e449f341146102195761009e565b80630fbf0a93146100a3578063150b7a02146100bf57806333e58779146100ef578063454938e01461010d5780635704589c1461013d575b600080fd5b6100bd60048036038101906100b8919061124f565b610235565b005b6100d960048036038101906100d491906111c7565b6105c0565b6040516100e691906114db565b60405180910390f35b6100f76105d5565b6040516101049190611516565b60405180910390f35b6101276004803603810190610122919061116d565b6105db565b6040516101349190611516565b60405180910390f35b6101576004803603810190610152919061129c565b6106ba565b6040516101649190611516565b60405180910390f35b6101876004803603810190610182919061124f565b610811565b005b6101a3600480360381019061019e919061116d565b610822565b6040516101b09190611516565b60405180910390f35b6101d360048036038101906101ce919061116d565b610952565b6040516101e091906114b9565b60405180910390f35b61020360048036038101906101fe919061129c565b610b21565b6040516102109190611516565b60405180910390f35b610233600480360381019061022e919061124f565b610b33565b005b600082829050905060005b8181101561056b57600084848381811061025d5761025c611765565b5b905060200201359050600073ffffffffffffffffffffffffffffffffffffffff166001600083815260200190815260200160002060000160009054906101000a900473ffffffffffffffffffffffffffffffffffffffff1673ffffffffffffffffffffffffffffffffffffffff1614610302576040517fc706acb600000000000000000000000000000000000000000000000000000000815260040160405180910390fd5b3373ffffffffffffffffffffffffffffffffffffffff167f000000000000000000000000000000000000000000000000000000000000000073ffffffffffffffffffffffffffffffffffffffff16636352211e836040518263ffffffff1660e01b81526004016103729190611516565b60206040518083038186803b15801561038a57600080fd5b505afa15801561039e573d6000803e3d6000fd5b505050506040513d601f19601f820116820180604052508101906103c2919061119a565b73ffffffffffffffffffffffffffffffffffffffff161461040f576040517ff653d4c600000000000000000000000000000000000000000000000000000000815260040160405180910390fd5b7f000000000000000000000000000000000000000000000000000000000000000073ffffffffffffffffffffffffffffffffffffffff166342842e0e3330846040518463ffffffff1660e01b815260040161046c93929190611427565b600060405180830381600087803b15801561048657600080fd5b505af115801561049a573d6000803e3d6000fd5b5050505060405180604001604052803373ffffffffffffffffffffffffffffffffffffffff1681526020014267ffffffffffffffff168152506001600083815260200190815260200160002060008201518160000160006101000a81548173ffffffffffffffffffffffffffffffffffffffff021916908373ffffffffffffffffffffffffffffffffffffffff16021790555060208201518160000160146101000a81548167ffffffffffffffff021916908367ffffffffffffffff16021790555090505081600101915050610240565b508060005461057a919061157b565b6000819055507f05be9727e5f8ef44e5ef226f3d7f8c202aad4325901b4639a0f27f39d7cdccfb8383336040516105b393929190611487565b60405180910390a1505050565b600063150b7a0260e01b905095945050505050565b60005481565b6000806105e783610952565b905060008151905060005b818110156106b25760006001600085848151811061061357610612611765565b5b6020026020010151815260200190815260200160002060000160149054906101000a900467ffffffffffffffff1667ffffffffffffffff1690506000814261065b919061165c565b9050600061066882610b44565b905062015180670de0b6b3a764000083836106839190611602565b61068d9190611602565b61069791906115d1565b876106a2919061157b565b96508360010193505050506105f2565b505050919050565b600080600160008481526020019081526020016000206040518060400160405290816000820160009054906101000a900473ffffffffffffffffffffffffffffffffffffffff1673ffffffffffffffffffffffffffffffffffffffff1673ffffffffffffffffffffffffffffffffffffffff1681526020016000820160149054906101000a900467ffffffffffffffff1667ffffffffffffffff1667ffffffffffffffff16815250509050600073ffffffffffffffffffffffffffffffffffffffff16816000015173ffffffffffffffffffffffffffffffffffffffff1614156107a857600091505061080c565b6000816020015167ffffffffffffffff169050600081426107c9919061165c565b905060006107d682610b44565b905062015180670de0b6b3a764000083836107f19190611602565b6107fb9190611602565b61080591906115d1565b9450505050505b919050565b61081e3383836000610bbc565b5050565b6000807f000000000000000000000000000000000000000000000000000000000000000073ffffffffffffffffffffffffffffffffffffffff166318160ddd6040518163ffffffff1660e01b815260040160206040518083038186803b15801561088b57600080fd5b505afa15801561089f573d6000803e3d6000fd5b505050506040513d601f19601f820116820180604052508101906108c391906112c9565b905060005b81811161094b578373ffffffffffffffffffffffffffffffffffffffff166001600083815260200190815260200160002060000160009054906101000a900473ffffffffffffffffffffffffffffffffffffffff1673ffffffffffffffffffffffffffffffffffffffff161415610940576001830192505b8060010190506108c8565b5050919050565b6060600061095f83610822565b905060008114156109705750610b1c565b60007f000000000000000000000000000000000000000000000000000000000000000073ffffffffffffffffffffffffffffffffffffffff166318160ddd6040518163ffffffff1660e01b815260040160206040518083038186803b1580156109d857600080fd5b505afa1580156109ec573d6000803e3d6000fd5b505050506040513d601f19601f82011682018060405250810190610a1091906112c9565b90508167ffffffffffffffff811115610a2c57610a2b611794565b5b604051908082528060200260200182016040528015610a5a5781602001602082028036833780820191505090505b5092506000805b828111610b17578573ffffffffffffffffffffffffffffffffffffffff166001600083815260200190815260200160002060000160009054906101000a900473ffffffffffffffffffffffffffffffffffffffff1673ffffffffffffffffffffffffffffffffffffffff161415610b0c5780858381518110610ae657610ae5611765565b5b602002602001018181525050818060010192505083821415610b0b5750505050610b1c565b5b806001019050610a61565b505050505b919050565b6000610b2c82610b44565b9050919050565b610b403383836001610bbc565b5050565b600062278d008211610b595760019050610bb7565b62278d006003610b699190611602565b821015610b795760029050610bb6565b62278d006006610b899190611602565b821015610b995760049050610bb5565b62278d006006610ba99190611602565b8210610bb457600890505b5b5b5b919050565b600080600085859050905060005b81811015610d6457868682818110610be557610be4611765565b5b9050602002013593508773ffffffffffffffffffffffffffffffffffffffff166001600086815260200190815260200160002060000160009054906101000a900473ffffffffffffffffffffffffffffffffffffffff1673ffffffffffffffffffffffffffffffffffffffff1614610c89576040517ff653d4c600000000000000000000000000000000000000000000000000000000815260040160405180910390fd5b60006001600086815260200190815260200160002060000160149054906101000a900467ffffffffffffffff1667ffffffffffffffff16905060008142610cd0919061165c565b90506000610cdd82610b44565b905062015180670de0b6b3a76400008383610cf89190611602565b610d029190611602565b610d0c91906115d1565b86610d17919061157b565b9550426001600089815260200190815260200160002060000160146101000a81548167ffffffffffffffff021916908367ffffffffffffffff160217905550836001019350505050610bca565b5060008214610e34577f000000000000000000000000000000000000000000000000000000000000000073ffffffffffffffffffffffffffffffffffffffff166340c10f1988846040518363ffffffff1660e01b8152600401610dc892919061145e565b600060405180830381600087803b158015610de257600080fd5b505af1158015610df6573d6000803e3d6000fd5b505050507fd8138f8a3f377c5259ca548e70e4c2de94f129f5a11036a15b69513cba2b426a8783604051610e2b92919061145e565b60405180910390a15b8315610e4657610e45878787610e4f565b5b50505050505050565b600082829050905060005b81811015611017576000848483818110610e7757610e76611765565b5b9050602002013590508573ffffffffffffffffffffffffffffffffffffffff166001600083815260200190815260200160002060000160009054906101000a900473ffffffffffffffffffffffffffffffffffffffff1673ffffffffffffffffffffffffffffffffffffffff1614610f24576040517f08c379a0000000000000000000000000000000000000000000000000000000008152600401610f1b906114f6565b60405180910390fd5b60016000828152602001908152602001600020600080820160006101000a81549073ffffffffffffffffffffffffffffffffffffffff02191690556000820160146101000a81549067ffffffffffffffff021916905550507f000000000000000000000000000000000000000000000000000000000000000073ffffffffffffffffffffffffffffffffffffffff166342842e0e3088846040518463ffffffff1660e01b8152600401610fd993929190611427565b600060405180830381600087803b158015610ff357600080fd5b505af1158015611007573d6000803e3d6000fd5b5050505081600101915050610e5a565b5080600054611026919061165c565b6000819055507fce2f10e8afa473f84590e633f11ac65e6b99348175c4246f429ef398ccae761283838660405161105f93929190611487565b60405180910390a150505050565b60008135905061107c8161180a565b92915050565b6000815190506110918161180a565b92915050565b60008083601f8401126110ad576110ac6117c8565b5b8235905067ffffffffffffffff8111156110ca576110c96117c3565b5b6020830191508360208202830111156110e6576110e56117cd565b5b9250929050565b60008083601f840112611103576111026117c8565b5b8235905067ffffffffffffffff8111156111205761111f6117c3565b5b60208301915083600182028301111561113c5761113b6117cd565b5b9250929050565b60008135905061115281611821565b92915050565b60008151905061116781611821565b92915050565b600060208284031215611183576111826117dc565b5b60006111918482850161106d565b91505092915050565b6000602082840312156111b0576111af6117dc565b5b60006111be84828501611082565b91505092915050565b6000806000806000608086880312156111e3576111e26117dc565b5b60006111f18882890161106d565b95505060206112028882890161106d565b945050604061121388828901611143565b935050606086013567ffffffffffffffff811115611234576112336117d2565b5b611240888289016110ed565b92509250509295509295909350565b60008060208385031215611266576112656117dc565b5b600083013567ffffffffffffffff811115611284576112836117d2565b5b61129085828601611097565b92509250509250929050565b6000602082840312156112b2576112b16117dc565b5b60006112c084828501611143565b91505092915050565b6000602082840312156112df576112de6117dc565b5b60006112ed84828501611158565b91505092915050565b60006113028383611409565b60208301905092915050565b61131781611690565b82525050565b60006113298385611559565b93507f07ffffffffffffffffffffffffffffffffffffffffffffffffffffffffffffff83111561135c5761135b6117d7565b5b60208302925061136d8385846116f8565b82840190509392505050565b600061138482611541565b61138e8185611559565b935061139983611531565b8060005b838110156113ca5781516113b188826112f6565b97506113bc8361154c565b92505060018101905061139d565b5085935050505092915050565b6113e0816116a2565b82525050565b60006113f360098361156a565b91506113fe826117e1565b602082019050919050565b611412816116ee565b82525050565b611421816116ee565b82525050565b600060608201905061143c600083018661130e565b611449602083018561130e565b6114566040830184611418565b949350505050565b6000604082019050611473600083018561130e565b6114806020830184611418565b9392505050565b600060408201905081810360008301526114a281858761131d565b90506114b1602083018461130e565b949350505050565b600060208201905081810360008301526114d38184611379565b905092915050565b60006020820190506114f060008301846113d7565b92915050565b6000602082019050818103600083015261150f816113e6565b9050919050565b600060208201905061152b6000830184611418565b92915050565b6000819050602082019050919050565b600081519050919050565b6000602082019050919050565b600082825260208201905092915050565b600082825260208201905092915050565b6000611586826116ee565b9150611591836116ee565b9250827fffffffffffffffffffffffffffffffffffffffffffffffffffffffffffffffff038211156115c6576115c5611707565b5b828201905092915050565b60006115dc826116ee565b91506115e7836116ee565b9250826115f7576115f6611736565b5b828204905092915050565b600061160d826116ee565b9150611618836116ee565b9250817fffffffffffffffffffffffffffffffffffffffffffffffffffffffffffffffff048311821515161561165157611650611707565b5b828202905092915050565b6000611667826116ee565b9150611672836116ee565b92508282101561168557611684611707565b5b828203905092915050565b600061169b826116ce565b9050919050565b60007fffffffff0000000000000000000000000000000000000000000000000000000082169050919050565b600073ffffffffffffffffffffffffffffffffffffffff82169050919050565b6000819050919050565b82818337600083830152505050565b7f4e487b7100000000000000000000000000000000000000000000000000000000600052601160045260246000fd5b7f4e487b7100000000000000000000000000000000000000000000000000000000600052601260045260246000fd5b7f4e487b7100000000000000000000000000000000000000000000000000000000600052603260045260246000fd5b7f4e487b7100000000000000000000000000000000000000000000000000000000600052604160045260246000fd5b600080fd5b600080fd5b600080fd5b600080fd5b600080fd5b600080fd5b7f4e6f74204f776e65720000000000000000000000000000000000000000000000600082015250565b61181381611690565b811461181e57600080fd5b50565b61182a816116ee565b811461183557600080fd5b5056fea2646970667358221220695a86fe57209c22509da2b0b5e3e416bffc6dfe34d9dea3a21f83b451c1a46a64736f6c63430008070033",
  "linkReferences": {},
  "deployedLinkReferences": {}
}